:020000040800F2
:100000004808002439030008F7250008A123000848
:10001000F5250008470400081D2A0008000000001C
:10002000000000000000000000000000FB250008A8
:100030007906000800000000F9250008FD250008E9
:100040005703000857030008570300085703000828
:100050005703000857030008570300085703000818
:100060005703000857030008570300084904000815
:1000700057030008550400085703000857030008F9
:1000800057030008570300085703000857030008E8
:1000900057030008570300085703000857030008D8
:1000A00057030008570300085703000857030008C8
:1000B000A12700085703000857030008570300084A
:1000C00057030008570300085703000857030008A8
:1000D0005703000857030008570300085703000898
:1000E00057030008570300080000000057030008EA
:1000F0005703000857030008570300085703000878
:100100005703000857030008570300085703000867
:100110005703000857030008570300085703000857
:100120005703000857030008570300085703000847
:100130005703000857030008570300085703000837
:1001400000000000000000000000000000000000AF
:100150005703000857030008570300085703000817
:100160005703000857030008570300085703000807
:1001700057030008570300085703000857030008F7
:1001800057030008570300085703000857030008E7
:1001900057030008570300085703000857030008D7
:1001A00057030008570300085703000857030008C7
:1001B00057030008570300085703000857030008B7
:1001C00057030008570300085703000857030008A7
:1001D0005703000857030008570300085703000897
:1001E0005703000857030008570300085703000887
:1001F0005703000857030008570300085703000877
:100200005703000857030008570300085703000866
:100210005703000857030008570300085703000856
:1002200057030008570300085703000800000000A8
:100230005703000857030008000000005703000898
:100240005703000857030008570300085703000826
:100250005703000857030008570300085703000816
:100260005703000857030008570300085703000806
:100270005703000857030008570300080000000058
:100280005703000857030008570300080000000048
:10029000000000005703000800F002F800F03CF8EE
:1002A0000AA090E8000C82448344AAF10107DA45D1
:1002B00001D100F031F8AFF2090EBAE80F0013F0E7
:1002C000010F18BFFB1A43F0010318470028000074
:1002D00020280000103A24BF78C878C1FAD8520705
:1002E00024BF30C830C144BF04680C6070470000B0
:1002F0000023002400250026103A28BF78C1FBD82F
:10030000520728BF30C148BF0B6070471FB502F0CD
:10031000CCFB1FBD10B510BD00F05CF81146FFF717
:10032000F5FF02F08DFB00F07AF803B4FFF7F2FF5F
:1003300003BC00F081F800000A4880470A48804763
:100340000A480047FEE7FEE7FEE7FEE7FEE7FEE7B6
:10035000FEE7FEE7FEE7FEE705480649064A074BCB
:100360007047000081060008A926000899020008CD
:1003700048020024480800244804002448040024BB
:100380004FF0000200B5134694469646203922BF2E
:10039000A0E80C50A0E80C50B1F12001BFF4F7AF79
:1003A000090728BFA0E80C5048BF0CC05DF804EB5B
:1003B000890028BF40F8042B08BF704748BF20F8C9
:1003C000022B11F0804F18BF00F8012B70477047C7
:1003D00070477047754600F02BF8AE460500694639
:1003E000534620F00700854618B020B5FFF7B4FF4C
:1003F000BDE820404FF000064FF000074FF0000826
:100400004FF0000B21F00701AC46ACE8C009ACE8A6
:10041000C009ACE8C009ACE8C0098D46704710B50A
:100420000446AFF300802046BDE81040FFF77DBFD3
:1004300000487047E801002401491820ABBEFEE7E0
:10044000260002007047FEE7014800F027B90000CF
:10045000F8000024014800F021B9000070010024D8
:10046000294A016891423AD0274A1832914236D03F
:10047000254A3032914232D0234A483291422ED01E
:10048000214A603291422AD01F4A7832914226D0C6
:100490001D4A9032914222D01B4AA83291421ED06E
:1004A0001A4A91421BD0194A1832914217D0174A62
:1004B0003032914213D0154A483291420FD0134A3C
:1004C000603291420BD0114A7832914207D00F4AE4
:1004D0009032914203D00D4AA832914211D1CAB252
:1004E0001823103AB2FBF3F26FF30901032A02F06A
:1004F0000703074AD25CC26500D9091D8165084619
:10050000704721F0FF01F9E710000240100402409B
:10051000B42A000830B5224A012301689142CAB2C8
:100520001BD01F4C1434A14217D01D4C2834A142BB
:1005300013D01B4C3C34A1420FD0194C5034A14273
:100540000BD0174C6434A14207D0154C7834A1422B
:1005500003D0134C8C34A1420CD11421114C083A15
:10056000B2FBF1F10F4A803201F01F0504EB81016B
:10057000AB4010E00C4D1824103A0D44B2FBF4F1DE
:10058000A82D00D80831094A01F01F0402EB8101AF
:10059000064AA3408032603080E80E0030BD000083
:1005A0000854025800580258F0FBFDBF00080240F2
:1005B00010B50279531E072B2DD8174C0168A142A4
:1005C0001BD0154C1434A14217D0134C2834A1422F
:1005D00013D0114C3C34A1420FD00F4C5034A142E7
:1005E0000BD00D4C6434A14207D00B4C7834A1429F
:1005F00003D0094C8C34A14203D10849074C443143
:1006000002E00749064C443104EB8202C0E91B2199
:1006100001219940416710BD08540258FC58025806
:10062000FC08024010B583694FF0C074826A01462D
:10063000002053B1B3F5005F15D072B1012A0CD080
:10064000022A0AD0032A09D104E01AB1012A06D0ED
:10065000022A03D1C96AC90100D5012010BDC96AA7
:10066000A142FAD010BD002AF7D0012AF2D0022A06
:10067000F3D0032AF3D010BD704772B6FEE7000036
:10068000054805490839026842F00202026008681C
:100690008004FCD5704700000C4802582DE9FC5F2F
:1006A0000446F74E0020DFF8D88300904FF416522E
:1006B000F44808F11808A56DDFF8C493DFF8C0A36B
:1006C000016809F1300920680AF1480AB1FBF2F12A
:1006D000B04201912F68D5F800C0DFF8ACB335D037
:1006E0004146884232D0484530D050452ED05845FA
:1006F0002CD0E5491831884228D0E349303188426E
:1007000024D0E1494831884220D0E04988421DD0B8
:10071000DE491831884219D0DC493031884215D081
:10072000DA494831884211D0DFF860E30EF1600EFB
:1007300070450BD0D54A7832904207D0D34B9033D6
:10074000984203D0D149A83188427DD194F85C20E9
:10075000082102F01F0201FA02F23A424AD0B042E6
:1007600032D0404530D048452ED050452CD0584549
:100770002AD0C54A1832904226D0C34A303290421D
:1007800022D0C14A483290421ED0C04A90421BD06B
:10079000BE4A1832904217D0BC4A3032904213D031
:1007A000BA4A483290420FD0B84A603290420BD0D9
:1007B000B64A7832904207D0B44A9032904203D081
:1007C000B24AA832904203D1026802F0040202E069
:1007D000026802F008026AB1026822F004020260B4
:1007E00094F85C0000F01F008140A960606D40F04B
:1007F0000100606594F85C00012100F01F00814059
:10080000394240D02068B04234D0404532D04845CB
:1008100030D050452ED058452CD09B4A18329042AB
:1008200028D0994A3032904224D0974A4832904298
:1008300020D0964A90421DD0944A1832904219D046
:10084000924A3032904200E0AFE113D08F4A4832F2
:1008500090420FD08D4A603290420BD08B4A783252
:10086000904207D0894A9032904203D0874AA832FA
:1008700090427DD1406910F0800F04D0A960606D76
:1008800040F00200606594F85C00042100F01F0055
:10089000814039423ED02068B04232D0404530D00D
:1008A00048452ED050452CD058452AD0764A18328B
:1008B000904226D0744A3032904222D0724A483256
:1008C00090421ED0714A90421BD0704A183290421A
:1008D00017D06E4A3032904213D06C4A4832904260
:1008E0000FD06A4A603290420BD0684A7832904208
:1008F00007D0664A9032904203D0644AA8329042B0
:100900004ED1006810F0020F04D0A960606D40F075
:100910000400606594F85C00102100F01F00814025
:10092000394258D02068B04234D0404532D0484592
:1009300030D050452ED058452CD0534A18329042D2
:1009400028D0514A3032904224D04F4A4832904207
:1009500020D04E4A90421DD04C4A1832904219D0B5
:100960004A4A3032904215D0484A4832904200E01C
:1009700014E00FD0454A603290420BD0434A78329F
:10098000904207D0414A9032904203D03F4AA83269
:10099000904207D1006800F0080006E0006872E7A6
:1009A0000068B7E7006800F00400A0B1A960206803
:1009B0000168490304D50068000308D5A16C07E06D
:1009C0000168C90503D4016821F008010160216CA8
:1009D00009B12046884794F85C00202100F01F00F0
:1009E0008140394279D02068B04232D0404530D081
:1009F00048452ED050452CD058452AD0224A18328E
:100A0000904226D0204A3032904222D01E4A4832AC
:100A100090421ED01D4A90421BD01C4A1832904270
:100A200017D01A4A3032904213D0184A48329042B6
:100A30000FD0164A603290420BD0144A783290425E
:100A400007D0124A9032904203D0104AA832904206
:100A500003D1006800F0100002E0006800F002001E
:100A6000B0B3A96094F835000428206801680FD05D
:100A700049037ED5006800032BD5616C2AE0000095
:100A8000100002400C0000247000024010040240DC
:100A900021F0160101602068416921F08001416167
:100AA000206C08B9A06C20B12068016821F0080111
:100AB000016094F85C303F21012003F01F03002205
:100AC0009940A96084F8350084F83420216D65E0F0
:100AD00003E0E16B09B120468847606D00287DD0B6
:100AE000606DC00759D02068042184F83510B042E9
:100AF0002BD0404529D0484527D0504525D05845D2
:100B000023D09D49884220D09B49183188421CD06F
:100B100099493031884218D09849884215D0974970
:100B20001831884211D09549303188420DD093490F
:100B30004831884209D091496031884205D08F49B7
:100B40007831884201D08D499031016821F001014E
:100B5000016020680099019A491C0091914202D8D5
:100B60000168C907F6D10068C00710D003200FE064
:100B7000FFE70168C905ACD403680121002223F016
:100B80001003036084F8351084F83420A1E70120B5
:100B900084F83500002084F83400E16C00291DD071
:100BA00002B02046BDE8F05F0847754988421DD075
:100BB00073491431884219D071492831884215D0BF
:100BC0006F493C31884211D06D49503188420DD077
:100BD0006B496431884209D0694900E084E078318A
:100BE000884203D066498C3188427DD194F85C807C
:100BF0000427016808F01F0807FA08F717EA0C0F26
:100C0000009746D04F0744D500980F04686003D57D
:100C1000C8033CD5A16CC1E7880638D42068B0422F
:100C20002DD055496039884229D0484527D05045B4
:100C300025D0584523D05049884220D04E491831FC
:100C400088421CD04C493031884218D04B498842E8
:100C500015D04A491831884211D04849303188426C
:100C60000DD046494831884209D0704507D090429E
:100C700005D0984203D04149A831884203D1016888
:100C800021F0080102E0016821F004010160216CFB
:100C900084E7022707FA08F717EA0C0F00974ED0EF
:100CA0008F074CD500980F04686003D5C80344D45F
:100CB000616C73E7880640D42068B0422FD02E497B
:100CC000603988422BD0484529D0504527D0584517
:100CD00025D02949884222D02749183188421ED080
:100CE00025493031884200E044E018D02349884249
:100CF00015D022491831884211D02049303188421C
:100D00000DD01E494831884209D0704507D0904225
:100D100005D0984203D01949A831884203D101680F
:100D200021F0140102E0016821F00A0101600121B3
:100D300084F83510002084F83400E16B2EE7082297
:100D400002FA08F212EA0C0F14D0090712D5016852
:100D500021F00E01016094F85C100120002201F0E6
:100D60001F0100FA01F16960606584F8350084F8BC
:100D7000342012E7BDE8FC9F8800024010040240C6
:100D8000085402582DE9F05F044600F003FB002CE4
:100D900007467DD0E34E022120684FF00308DFF8BC
:100DA00088934FF00005DFF884A3B042DFF880B3EA
:100DB00034D0DC4A1832904230D048452ED05045CD
:100DC0002CD058452AD0DA4A1832904226D0D84A38
:100DD0003032904222D0D64A483290421ED0D54A74
:100DE00090421BD0D34A1832904217D0D14A3032A9
:100DF000904213D0CF4A483290420FD0CD4A603251
:100E000090420BD0CB4A7832904207D0C94A9032F8
:100E1000904203D0C74AA83290427DD184F8351061
:100E2000B04284F834502ED0BE49183188422AD0BE
:100E3000484528D0504526D0584524D0BC491831C3
:100E4000884220D0BA49303188421CD0B849483154
:100E5000884218D0B749884215D0B649183188421F
:100E600011D0B449303188420DD0B249483188425E
:100E700009D0B0496031884205D0AE497831884206
:100E800001D0AC499031016821F00101016008E016
:100E900027E100BF00F07EFAC01B052801D9202100
:100EA0001CE120680068C007F4D104F10800216843
:100EB000D4E9053C8E4685C809681043D4E9072863
:100EC0001F43636A38439C4F40EA0C00104339408B
:100ED00040EA0800042B40EA010003D1D4E90B12D8
:100EE00011430843954909686FF30F01B1F1005FA1
:100EF0000FD36168A1F12902052A08D9163A032AFD
:100F000005D9083A012A02D94F39032901D840F4FA
:100F10008010CEF8000000E023E02068676A406996
:100F2000042F20F0070047EA00070DD1D4E90A0199
:100F3000074349B12046FFF775FB28B140206065A3
:100F4000012184F83510CCE0206847612046FFF786
:100F500087FA94F85C203F2102F01F0291408160E3
:100F600054E0774A90421BD0754B1433984217D007
:100F7000734B2833984213D0714B3C3398420FD0B7
:100F80006F4B503398420BD06D4B6433984207D06F
:100F90006B4B7833984203D0694B8C3398427DD1A8
:100FA00084F8351084F83450664B0168A26801EA71
:100FB000030E402A73D0802A72D00022D4E903782D
:100FC000D4E9053142EAD70242EAD8085C4AD4E9BA
:100FD000077C48EAD30848EAD10141EAD7015242E6
:100FE00041EA1C11142341EA0E01016020681044FB
:100FF000B0FBF3F08000E0652046FFF731FA94F88B
:101000005C20012102F01F02914041602068B04243
:1010100057D044491831884253D0484551D05045A3
:101020004FD058454DD042491831884249D04049A7
:101030003031884245D03E494831884241D03D490F
:1010400088423ED03B49183188423AD03949303144
:10105000884236D037494831884232D035496031EC
:1010600088422ED03349783188422AD03149903194
:10107000884226D02F49A831884222D03049884260
:101080001FD02F49143188421BD02D492831884266
:1010900017D02B493C31884213D002E01DE017E005
:1010A00018E02749503188420BD0254964318842E5
:1010B00007D023497831884203D021498C318842B6
:1010C00029D12046FFF726FAA06880280CD00CE032
:1010D000102273E74FF4804270E74021616584F885
:1010E00035800120BDE8F09F6560216E20790860A1
:1010F000D4E9190141606068401E072808D82046DD
:10110000FFF756FAE06E0560D4E91C01416002E089
:10111000E566256765670120656584F83500002070
:10112000E0E700001000024040000240580002408A
:1011300070000240100402403F8010FE0010005C6E
:10114000085402580F00FEFF2DE9F84F03247F4D8D
:1011500000234FF001094FF0B04B4FF00F0AEDE0C4
:1011600009FA03F632407AD00F7907F00307012F0E
:1011700001D0022F19D187684FEA430ED1F80CC075
:1011800004FA0EF827EA08070CFA0EFC4CEA070CE2
:10119000C0F808C0D0F804C00F792CEA060CC7F3D9
:1011A00000179F4047EA0C0747600E79F643B607E1
:1011B00002D18E68012E0BD0C6684FEA43088F68B3
:1011C00004FA08FC26EA0C0607FA08F73743C7605A
:1011D0000E7906F00306022E12D1DE080F694FEADF
:1011E000437C00EB8606B646366A4FEADC6C0AFAA8
:1011F0000CF807FA0CF726EA08063743CEF82070F9
:101200000F7906684FEA430807F0030704FA08FC61
:1012100007FA08F726EA0C06374307604E6816F40B
:10122000403F1CD04A4E376847F0020737603668A7
:101230009F0706F00206009623F0030606F1B0466B
:10124000B6463F0FD6F80864DFF808810AFA07FCB3
:10125000404526EA0C0603D14FF0000C41E06CE05B
:10126000DFF8F4C0604502D14FF0010C39E0DFF83F
:10127000ECC0604502D14FF0020C32E0DFF8E0C074
:10128000604502D14FF0030C2BE0DFF8D8C0604579
:1012900002D14FF0040C24E0DFF8CCC0604502D14D
:1012A0004FF0050C1DE0DFF8C4C0604502D14FF0DF
:1012B000060C16E0DFF8B8C0604502D14FF0070C0D
:1012C0000FE0DFF8B0C0604502D14FF0080C08E035
:1012D000DFF8A4C0604502D14FF0090C01E04FF0E7
:1012E0000A0C0CFA07FC4CEA060CCEF808C44F684E
:1012F000DBF80060FF0226EA020600D516435F46CF
:10130000CBF80060D1F804C0DBF804605FEA8C2CF5
:1013100026EA020600D516437E606E684F6826EA0C
:101320000206BF0300D516436E602E684F6826EA9A
:101330000206FF0300D516432E605B1C0A6832FAD2
:1013400003F67FF40DAFBDE8F88F00008000005871
:10135000F4440258000002580004025800080258E1
:10136000000C0258001002580014025800180258CD
:10137000001C025800200258002402580AB1816162
:1013800070470904FBE7000001480068000C704743
:101390000010005C014880687047000000000024D5
:1013A000024881680278114481607047000000247F
:1013B000032010B500F0D4F800F03CFA0F4A1049B1
:1013C00014681368C4F3032203F00F038A5CC95C3A
:1013D00002F01F0201F01F01D0400A4A20FA01F179
:1013E0001160094908600F2000F010F808B10120D1
:1013F00010BD00F079F8002010BD0000184402581C
:10140000BC2A0008100000240C00002470B50D4D0B
:1014100004462878A0B14FF47A71B1FBF0F00A4984
:101420000968B1FBF0F000F062FD48B9102C07D25A
:1014300000222146501E00F073F800206C6070BD41
:10144000012070BD000000240C000024154BF0B5F5
:10145000083B427813491A600B680A1F23F0010306
:101460000B6043681360057BC67A827A437B2D0745
:10147000847B45EA0665C77B90F809C0067A90F838
:1014800000E045EAC24040EA834040EA444040EA86
:10149000074040EA0C2040EA460040EA0E0008609F
:1014A000F0BD0000A0ED00E0BFF35F8F0448002115
:1014B0000368034A23F4803303607032116070477D
:1014C00024ED00E0074A40F0010006497032106048
:1014D000086840F480300860BFF34F8FBFF36F8F10
:1014E0007047000024ED00E0054808B5016841F0B0
:1014F00002010160006800F00200009008BD0000D9
:10150000F4440258002809DB410900F01F02890059
:10151000012001F1E0219040C1F800017047000076
:101520000E4BF0B41B680D46C3F30223C3F107064C
:10153000042E00D90426191D072901D2002300E03A
:10154000DB1E012404FA06F19C40491E2940641E5A
:10155000994014402143F0BC01F061BA0CED00E069
:10156000064900F0070210B54FF6FF040868044B67
:10157000204040EA02201843086010BD0CED00E056
:101580000000FA05134970B50A68D243520705D521
:10159000096801F00701814213D118E00A6822F0BE
:1015A000070202430A60FFF7F5FE0A4D4FF47A7610
:1015B0000446083D07E000BFFFF7ECFE001BB04209
:1015C00001D9012070BD2868C0438004F4D40020F4
:1015D00070BD00000C4802582DE9F05F04000F4672
:1015E0007ED0DFF83882D8F8000000F00F00B84253
:1015F0000CD2D8F8001021F00F013943C8F80010C0
:10160000D8F8000000F00F00B84269D12078844D6E
:1016100040070AD52069296801F07001884204D981
:10162000296821F070010143296020787C4E361D25
:1016300000070AD56069316801F07001884204D959
:10164000316821F07001014331602078C0060AD56D
:10165000A069316801F4E061884204D9316821F45D
:10166000E061014331602078DFF8B4B180060BF10E
:10167000080B0CD5E1695846DBF8002002F0700237
:10168000914204D9026822F070020A430260207875
:1016900080070AD5E068296801F00F01884204D963
:1016A000296821F00F01014329602078C0073ED04E
:1016B0005B49A2682868183920F4706010432860DC
:1016C0006068022818D0032819D00968012819D0A9
:1016D000490700294ADADFF848A1AAF1080A00E020
:1016E00044E0DAF8002022F007020243CAF80020A2
:1016F000FFF750FE814612E009688903E9E70968AF
:101700008901E6E7C905E4E7FFF744FEA0EB09011C
:1017100041F28830814202D90320BDE8F09F616820
:10172000DAF8000000F03800B0EBC10FECD12078FF
:1017300080070AD5E068296801F00F01884204D2C9
:10174000296821F00F0101432960D8F800104046B4
:1017500001F00F01B9420BD9016821F00F013943A3
:101760000160006800F00F00B84201D00120D4E70A
:10177000207840070AD52069296801F07001884265
:1017800004D2296821F07001014329602078000704
:101790000AD56069316801F07001884204D231686D
:1017A00021F07001014331602078C0060AD5A0699C
:1017B000316801F4E061884204D2316821F4E061CB
:1017C00001433160207880060CD5E1695846DBF88A
:1017D000002002F07002914204D2026822F07002EE
:1017E0000A43026000F026F80E492A682B68C2F30B
:1017F000032203F00F038A5CC95C02F01F0201F0B0
:101800001F01D040084A20FA01F111600749086021
:1018100007480068BDE8F05FFFF7F8BD0020005200
:1018200018440258BC2A0008100000240C000024B0
:1018300004000024454970B545480968434B103BF6
:1018400011F0380208D00111082A03D0102A0BD059
:10185000182A0BD0084670BD19688906FBD519688F
:10186000C1F3C101C84070BD3A4870BD3749374D1A
:1018700018310C1D24350A68096826682D6802F0A5
:10188000030406F00102C1F30511C5F3CC0515FBF5
:1018900002F200EE102AB8EE400AE9B32F4ADFED5B
:1018A0002E0AB7EE001A6CB1DFED2D1A012C01D013
:1018B000022C43D002EE101A1068F8EE422A81EE94
:1018C000A22A1EE01C68A40611D51B6801EE901A1E
:1018D0001168C3F3C103F8EE612AD84001EE900A03
:1018E000C1F30800F8EE611A81EEA22A0BE001EEC6
:1018F000901ADFED1C2A00BFF8EE611A106882EE24
:10190000A12AC0F3080001EE900AF8EE611A40EE39
:10191000201A31EE810A00E015E022EE000A10687C
:10192000C0F34620401C00EE900AF8EE600A80EEFC
:10193000201ABCEEC10A10EE100A70BD01EE901A1A
:10194000DFED092AD8E7002070BD000010440258DE
:101950000090D003001BB70000000039304402584B
:101960000024744A0024744C001B374B2DE9F05FAF
:1019700004007DD0FF4F2078FE4D1837DFF8F49338
:10198000103DC00748D0D9F80000396800F0380091
:10199000102815D0182803D101F0030002280FD019
:1019A0006068B0F5803F12D010B1B0F5A02F18D00C
:1019B000286820F480302860286820F4802009E01E
:1019C0002868800328D560680028D2D024E02868E1
:1019D00040F480302860606888B1FFF7DBFC064681
:1019E00009E0286840F480202860F0E7FFF7D2FC87
:1019F000801B64286FD828688003F7D50CE0FFF7B8
:101A0000C9FC064605E000BFFFF7C4FC801B642844
:101A1000F0D828688003F7D4207841F20308D54E27
:101A20000C3E800769D5D9F80000396810F03800FD
:101A30000ED0182801D188070AD0E06890B3296831
:101A400021F0190101432960FFF7A4FC824631E02F
:101A50002868400702D5E06800288AD0E168286835
:101A600020F0190008432860FFF794FC824607E045
:101A7000DFE000BFFFF78EFCA0EB0A000228B9D818
:101A800028684007F6D500BFFFF77EFC40451BD80D
:101A90002069402812D0316821F47C3141EA0030BD
:101AA00030602AE018E000BFFFF774FCA0EB0A00EA
:101AB00002289FD828684007F6D5E5E7306820F46B
:101AC0007C3040F40030EBE7207C316821F0FE41AF
:101AD00041EA0060E4E70DE1286820F00100286099
:101AE000FFF758FC824605E0FFF754FCA0EB0A0024
:101AF00002288DD828684007F6D42078C0065DD526
:101B0000D9F80000DFF86CB2396800F03800ABF1AA
:101B1000040B082810D0182803D101F00300012875
:101B20000AD0E0690028286838D040F0800028609A
:101B3000FFF730FC824623E02868C00523D5E06922
:101B4000802876D11FE0206A202821D0316821F03A
:101B5000F84141EA8060306030E000BF94F8201026
:101B6000DBF8002022F07C5242EA0161CBF8001041
:101B700024E000BFFFF70EFCA0EB0A00022898D873
:101B80002868C005F6D5FFF7FFFB4045E6D8DAE741
:101B9000306820F0F84040F08040DCE720F0800022
:101BA0002860FFF7F7FB064605E000BFFFF7F2FBF2
:101BB000801B02289DD82868C005F7D4207800072C
:101BC00029D56C486169643000298046016811D0CC
:101BD00041F001010160FFF7DDFB064605E000BFB3
:101BE000FFF7D8FB801B0228C9D8D8F8000080076F
:101BF000F6D510E021F001010160FFF7CBFB0646AE
:101C000005E000BFFFF7C6FB801B022872D8D8F89A
:101C100000008007F6D42078800623D5A06900282C
:101C2000286810D040F480502860FFF7B3FB0646C8
:101C300005E036E1FFF7AEFB801B02285AD8286882
:101C40008004F7D50EE020F480502860FFF7A2FB57
:101C5000064604E0FFF79EFB801B02284AD828684E
:101C60008004F7D4207840074FD5DFF80C81D8F8EE
:101C7000001041F48071C8F80010FFF78BFB064696
:101C800005E000BFFFF786FB801B642832D8D8F838
:101C90000000C005F6D5374EA068603601280AD08E
:101CA00008B1052813D0306820F00100306030689A
:101CB00020F0040002E0306840F001003060A068CD
:101CC00041F2883A90B1FFF765FB80460AE0306840
:101CD00040F004003060EEE7FFF75CFBA0EB08018A
:101CE000514507D830688007F6D50EE0FFF752FB64
:101CF000804607E084E000BFFFF74CFBA0EB080143
:101D000051457DD830688007F6D4606AB0B3DFF8FB
:101D10006480D9F8001008F120084FF6F87B08F12C
:101D20000409C1F3C2010329A8F1040A69D00228F9
:101D3000286820F08070286003D0FFF72BFB044652
:101D400084E0FFF727FB064605E000BFFFF722FB14
:101D5000801B022877D828688001F7D4E26A40F215
:101D6000F331386854F8283F884340EA021018439A
:101D7000386004E01044025800480258B5E0217B66
:101D8000434622894FF4FE0C208A4FF0FE47490259
:101D9000267D521E401EA1F50071C2F308088AB2CA
:101DA000761E0CEA004042EA08020243504607EA67
:101DB00006610A431A60DAF8002022F00102CAF82C
:101DC0000020D9F80020266A22EA0B0242EAC60265
:101DD000C9F80020DAF80010A26921F00C011143C3
:101DE000CAF800100168E26921F0020111430160A4
:101DF000016841F480310160016841F4003101E083
:101E000021E027E00160016841F480210160016860
:101E100041F001010160286840F080702860FFF700
:101E2000B9FA044605E000BFFFF7B4FA001B022828
:101E300009D828688001F7D557E000BFFFF7AAFA54
:101E4000001B022802D90320BDE8F09F286880010A
:101E5000F4D44AE039680128D8F8000021D0A26AF9
:101E600001F0030393421CD1E26AC1F305118A42D7
:101E700017D1216BC0F30802491E8A4211D1616B50
:101E8000C0F34622491E91420BD1A16BC0F306421A
:101E9000491E914205D1E16BC0F30660491E8142A3
:101EA00001D00120D0E7A16C4E46D9F80000C0F364
:101EB000CC00814219D0DAF80000554620F001002C
:101EC000CAF80000FFF766FA4FEA0007FFF762FA68
:101ED000B842FBD0A26C306820EA0B0040EAC20096
:101EE0003060286840F0010028600020ACE7401E08
:101EF000B0F1807F10B501D3012010BD4FF0E02478
:101F000060610F21601700F08AFD0020A0610721A9
:101F1000216110BD7047704770470000F0B590F820
:101F20003C20012A3BD01F4E012480F83C40022275
:101F300080F83D2002681C4D5368B242D2F808C0B8
:101F400001D0AA4203D14F6823F470033B430F68CA
:101F500023F070031F4357600268B24213D0B2F1FE
:101F6000804F10D0114B9A420DD0114B9A420AD09B
:101F7000104B9A4207D0AA4205D00F4B9A4202D08A
:101F80000E4B9A4204D189682CF08003194391606A
:101F9000002180F83D4080F83C100846F0BD02204A
:101FA000F0BD0000000001400004014000040040BA
:101FB00000080040000C00400018004000400140B4
:101FC00010B5040003D094F83D0010B107E00120E3
:101FD00010BD002084F83C00204600F023F80220C9
:101FE00084F83D002068211D00F0E0FB012084F80A
:101FF000480084F83E0084F83F0084F8400084F8EC
:10200000410084F8420084F8430084F8440084F8D6
:10201000450084F8460084F8470084F83D0000201D
:1020200010BD0000F8B5076805462F4CB7F1804F8A
:1020300021D02E4800214FF4806287424FF04000AB
:102040004FF400634FF400564FF4403E28D1276808
:1020500047F00207276024684FF01B0C254F04F05F
:1020600002040094224C84E84F00C4E9051EA4F148
:102070000800E1612EE0206840F001002060206847
:102080000022114600F0010000901C20FFF748FAE2
:10209000BDE8F8401C20FFF735BA2C62A563F8BDF7
:1020A000154CA742FBD1104C0834276847F00207B3
:1020B000276024684FF0330C0E4F04F002040094A4
:1020C0000B4C7834303784E84F00C4E9051EA4F186
:1020D0000800E16164E9027CFEF754FE0028DCD0D0
:1020E000FEF7CBFAD9E70000E844025800040040AC
:1020F00000010024100002400004014070B50446B5
:1021000090F83C000025012814D03A4B012684F8B1
:102110003C60022084F83D0022689068184020F45A
:102120007F409060086870282FD010DC10F00F0FEF
:1021300003D022E04FF0020070BD4FEA2012072AC0
:102140001BD2DFE802F0535353534B394100B0F137
:10215000101F4BD009DCB0F5805F0FD0B0F5005FE9
:102160001ED0B0F5801F08D140E0A0F580112039C5
:102170003CD010293AD0202938D0012584F83D6080
:10218000002084F83C00284670BD4A682068D1E9E8
:10219000021300F071FB2068816841F0770109E0CB
:1021A0004A682068D1E9021300F066FB2068816864
:1021B00041F480418160E1E7CA684968206800F025
:1021C000DFFB2068502106E0CA684968206800F0FB
:1021D00005FC2068602100F059FBCFE7CA68496818
:1021E000206800F0CDFB20684021F4E7226801461A
:1021F0001046F0E788FFCEFF70472DE9F041044616
:1022000000680027C6680569A90713D5B10711D56D
:10221000FA1E02610121217720688069800720462B
:1022200002D0FFF7E9FF04E000F08BF8204600F051
:1022300089F82777680716D5700714D52268022019
:102240006FF00401116120772068806910F4407FED
:10225000204602D0FFF7D0FF04E000F072F82046DD
:1022600000F070F82777280715D5300713D52268B6
:1022700004206FF00801116120772068C069800791
:10228000204602D0FFF7B8FF04E000F05AF82046DD
:1022900000F058F82777E80616D5F00614D522681E
:1022A00008206FF01001116120772068C06910F4D8
:1022B000407F204602D0FFF79FFF04E000F041F886
:1022C000204600F03FF82777E80708D0F00706D04F
:1022D00021686FF001000861204600F034F82806FC
:1022E00001D4A80408D5300606D521686FF4025041
:1022F00008612046FFF70FFEE80508D5300606D531
:1023000021686FF4807008612046FFF703FE6806BD
:1023100008D5700606D521686FF040000861204698
:1023200000F03DF8A8060AD5B00608D521686FF080
:10233000200008612046BDE8F041FFF7EDBDBDE893
:10234000F08170477047704770B5044690F83C00C4
:10235000012812D0012584F83C50022084F83D0069
:10236000204600F09DFA00284FF0000007D084F8C6
:102370003D5084F83C00012070BD022070BD2168F2
:10238000CA6822F04002CA602168CA6822F480420A
:10239000CA6084F83D5084F83C00002070BD70474E
:1023A000FEE700000D4808B5016841F00101016039
:1023B00000680022114600F0010000900B20FFF79A
:1023C000AFF80B20FFF79EF800220D201146FFF713
:1023D000A7F8BDE808400D20FFF794B8D84402588C
:1023E0002DE9F04786B014216846FDF7C9FF2E4855
:1023F000016841F010010160016801F010010591D0
:10240000016841F004010160016801F004010591D7
:10241000016841F008010160016801F008010591BF
:10242000016841F00101016000684FF6FF77DFF8B5
:102430007C90002200F00100394605904846FEF7E6
:102440009DFFDFF86C80002201214046FEF796FFD9
:10245000DFF860A0002239465046FEF78FFF0124C6
:1024600069460025032678108DE871004846FEF77E
:102470006BFE01AA00946946404682E87000FEF7B0
:1024800063FEE00369468DE8310048460395FEF798
:102490005BFE01AA00976946504682E87000FEF78D
:1024A00053FE06B0BDE8F087E04402580010025821
:1024B00000080258000C025830B587B017480024B5
:1024C00040F2E733EF2200944FF0804101948025E1
:1024D0000294039404940594069480E816008561A0
:1024E000C0E90334FFF76CFD08B1FEF7C6F84FF4FE
:1024F0008050009009486946FFF700FE08B1FEF7DA
:10250000BCF8064804A904940694FFF707FD0028C8
:1025100001D0FEF7B2F807B030BD0000140000246F
:1025200010B588B01748002415494722009480232D
:10253000019402940394049405940694C0E9001451
:10254000C0E9024204618361FFF73AFD08B1FEF77A
:1025500094F84FF4805000900A486946FFF7CEFD8A
:1025600008B1FEF78AF820200490064804A90694D2
:10257000FFF7D4FC002801D0FEF77FF808B010BDAB
:10258000000400406000002410B588B014216846A3
:10259000FDF7F6FE164800244722144905940694D8
:1025A0000794C0E90014C0E90242046144618461F7
:1025B000FFF706FD08B1FEF760F830210620CDE9EF
:1025C00000010B486946FFF7BFFE08B1FEF755F85A
:1025D000074805A9059406940794FFF79FFC002877
:1025E00001D0FEF74AF808B010BD00000004014019
:1025F000AC000024FEE7FEE770477047FEF7D0BE50
:1026000030B59DB04C216846FDF7BAFE202113A8D5
:10261000FDF7B6FE0220FEF7B5FF21480024214950
:10262000026842F44042026002680A6842F0010215
:102630000A60096801F001011B9101688904FCD559
:1026400002200090402504950121039104220B9261
:102650003C23CDE90904CDE90C300FAB0E900C21E1
:1026600083E8130068461294FFF780F908B172B648
:10267000FEE708221A95CDE91625D30113AA3F20BB
:102680000321CDE9185382E81300042113A8FEF7B3
:10269000A3FF002801D072B6FEE71DB030BD0000D8
:1026A000184802582C0400583348F0B5334A0168E2
:1026B00041F470010160106800F00F00072804D297
:1026C000106820F00F00C01D10602D4900202C4C18
:1026D00010340B682B4D43F001030B6020600B6836
:1026E0002B400B60136803F00F03072B04D913680A
:1026F00023F00F03DB1D1360214C234A1834234BB6
:10270000261D371D20601E4C214D28343060261DAB
:102710003860371D23603B1D35601C1D3A60251D48
:102720002E1D1860331D22602860326018600A6810
:10273000134B184C22F4802260330A601860206822
:102740006FF30F00B0F1005F03D213490120C1F80D
:1027500008010B48D4300168C9040BD4026843F265
:10276000D2010E4B42F4805202601960016821F4DC
:1027700080510160F0BD000088ED00E000200052B3
:10278000004402587FEDF6EA8002010100020202D5
:102790000000FF010010005C00800051004000526A
:1027A0000148FFF72ABD0000140000242DE9F0477E
:1027B000294B4FF0804A294D02689842284E294FF4
:1027C000294C09D0504507D0A84205D0B04203D0CB
:1027D000B84201D0A04205D1D1F804C022F0700265
:1027E0004CEA0202DFF884C0DFF884809842DFF808
:1027F00084900FD050450DD0A8420BD0B04209D0E4
:10280000B84207D0A04205D0604503D0404501D072
:10281000484503D1CD6822F440722A438E684D6941
:1028200022F08002C6620E682A439842866207D070
:10283000A04205D0604503D0404501D0484501D1B4
:10284000096901630368012143F0040303604161E6
:102850000260BDE8F0870000000001400004004075
:1028600000080040000C004000040140004001400E
:10287000004401400048014042EA032283680A43C1
:1028800023F47F410A43826070470000034B826853
:102890001A400A4342F00701816070478FFFCFFF63
:1028A0002DE9F041D1E9002306680024DFF8C0C01B
:1028B000304FB56805EA0C052B433B401A43B26024
:1028C0004A68B2F1101F27D014DC402A2ED007DC52
:1028D00012B3102A20D0202A1ED0302A1BD11BE090
:1028E000502A39D0602A3DD0702A18D0B2F5801F06
:1028F00011D111E02049501A8A420DD004DCA2F512
:102900008012A2F12002E3E7102805D01B494018ED
:1029100002D0102800D001242046BDE8F0818A684A
:102920000068D1E90313FFF7A7FFF5E70A68052A56
:1029300010D00268136A156A25F001051562026855
:102940000D69916921F0F00141EA0511916100687A
:102950000362E1E70120E0E70A690068896800F0A6
:102960000FF8D9E70A690068896800F037F8D3E7FB
:102970008FFFCFFFF8FFFEFF600010006000F0FF48
:1029800030B5114C036A056AA04225F001040462C7
:102990000BD00E4CA04208D00D4CA04205D00D4CDF
:1029A000A04202D00C4CA04203D1046A24F00404DB
:1029B0000462846923F00A030B4324F0F00444EA20
:1029C00002118161036230BD00000140000401403A
:1029D00000400140004401400048014030B50D4C2A
:1029E000036A056AA04225F01004046202D00A4C72
:1029F000A04203D1046A24F040040462846923F0F5
:102A0000A00343EA011124F4704444EA02328261D3
:102A1000016230BD0000014000040140FEE70907EB
:102A200000284FEA116104DB00F1E02080F8001477
:102A3000704700F00F0000F1E02080F8141D70478F
:102A40001FB500240094019402940394FEF72CFD1A
:102A500001208DF80C001F218DF8081087228DF8B9
:102A600009208DF80D008DF8000068468DF80A40A9
:102A70008DF80E408DF8014001948DF80B408DF8D3
:102A80000F40FEF7E3FC0420FEF71CFDFEF790FC70
:102A9000FFF7B6FDFFF7A4FCFFF784FCFFF740FD4E
:102AA000FFF70AFDFFF770FDFEE74FF04070E1EE23
:102AB000100A7047000610160006101600000000ED
:102AC000010203040102030406070809EC2A0008B6
:102AD0000000002414000000D4020008002B0008AD
:102AE0001400002434080000F00200080100000077
:102AF00010000000000000000090D0030090D00300
:040000050800029954
:00000001FF
